{
    "_format": "hh-sol-artifact-1",
    "contractName": "TokenFactory",
    "sourceName": "contracts/TokenFactory.sol",
    "abi": [
        {
            "inputs": [],
            "stateMutability": "nonpayable",
            "type": "constructor"
        },
        {
            "anonymous": false,
            "inputs": [
                {
                    "indexed": true,
                    "internalType": "address",
                    "name": "previousOwner",
                    "type": "address"
                },
                {
                    "indexed": true,
                    "internalType": "address",
                    "name": "newOwner",
                    "type": "address"
                }
            ],
            "name": "OwnershipTransferred",
            "type": "event"
        },
        {
            "stateMutability": "payable",
            "type": "fallback"
        },
        {
            "inputs": [],
            "name": "TokenCount",
            "outputs": [
                {
                    "internalType": "uint256",
                    "name": "",
                    "type": "uint256"
                }
            ],
            "stateMutability": "view",
            "type": "function"
        },
        {
            "inputs": [
                {
                    "internalType": "uint256",
                    "name": "",
                    "type": "uint256"
                }
            ],
            "name": "Tokens",
            "outputs": [
                {
                    "internalType": "address",
                    "name": "",
                    "type": "address"
                }
            ],
            "stateMutability": "view",
            "type": "function"
        },
        {
            "inputs": [
                {
                    "internalType": "uint256",
                    "name": "_initialSupply",
                    "type": "uint256"
                },
                {
                    "internalType": "string",
                    "name": "_name",
                    "type": "string"
                },
                {
                    "internalType": "string",
                    "name": "_symbol",
                    "type": "string"
                }
            ],
            "name": "createToken",
            "outputs": [
                {
                    "internalType": "address",
                    "name": "",
                    "type": "address"
                }
            ],
            "stateMutability": "nonpayable",
            "type": "function"
        },
        {
            "inputs": [
                {
                    "internalType": "uint256",
                    "name": "index",
                    "type": "uint256"
                }
            ],
            "name": "getTokenAddressAt",
            "outputs": [
                {
                    "internalType": "address",
                    "name": "",
                    "type": "address"
                }
            ],
            "stateMutability": "view",
            "type": "function"
        },
        {
            "inputs": [],
            "name": "owner",
            "outputs": [
                {
                    "internalType": "address",
                    "name": "",
                    "type": "address"
                }
            ],
            "stateMutability": "view",
            "type": "function"
        },
        {
            "inputs": [],
            "name": "renounceOwnership",
            "outputs": [],
            "stateMutability": "nonpayable",
            "type": "function"
        },
        {
            "inputs": [],
            "name": "totalTokenCount",
            "outputs": [
                {
                    "internalType": "uint256",
                    "name": "",
                    "type": "uint256"
                }
            ],
            "stateMutability": "view",
            "type": "function"
        },
        {
            "inputs": [
                {
                    "internalType": "address",
                    "name": "newOwner",
                    "type": "address"
                }
            ],
            "name": "transferOwnership",
            "outputs": [],
            "stateMutability": "nonpayable",
            "type": "function"
        },
        {
            "stateMutability": "payable",
            "type": "receive"
        }
    ],
    "bytecode": "0x608060405234801561001057600080fd5b5061002d61002261003a60201b60201c565b61004260201b60201c565b6000600281905550610106565b600033905090565b60008060009054906101000a900473ffffffffffffffffffffffffffffffffffffffff169050816000806101000a81548173ffffffffffffffffffffffffffffffffffffffff021916908373ffffffffffffffffffffffffffffffffffffffff1602179055508173ffffffffffffffffffffffffffffffffffffffff168173ffffffffffffffffffffffffffffffffffffffff167f8be0079c531659141344cd1fd0a4f28419497f9722a3daafe3b4186f6b6457e060405160405180910390a35050565b612a7c806101156000396000f3fe6080604052600436106200008b5760003560e01c80638da5cb5b11620000555780638da5cb5b1462000153578063953c81331462000183578063b1037e7814620001c7578063f2fde38b146200020b5762000093565b806303d9bc93146200009557806336ad658f14620000d9578063715018a61462000109578063764912ef14620001235762000093565b366200009357005b005b348015620000a257600080fd5b50620000c16004803603810190620000bb919062000722565b62000239565b604051620000d0919062000799565b60405180910390f35b348015620000e657600080fd5b50620000f162000284565b604051620001009190620007c7565b60405180910390f35b3480156200011657600080fd5b50620001216200028a565b005b3480156200013057600080fd5b506200013b620002a2565b6040516200014a9190620007c7565b60405180910390f35b3480156200016057600080fd5b506200016b620002ac565b6040516200017a919062000799565b60405180910390f35b3480156200019057600080fd5b50620001af6004803603810190620001a9919062000722565b620002d5565b604051620001be919062000799565b60405180910390f35b348015620001d457600080fd5b50620001f36004803603810190620001ed919062000852565b62000315565b60405162000202919062000799565b60405180910390f35b3480156200021857600080fd5b5062000237600480360381019062000231919062000927565b620004f3565b005b60006001828154811062000252576200025162000959565b5b9060005260206000200160009054906101000a900473ffffffffffffffffffffffffffffffffffffffff169050919050565b60025481565b620002946200057e565b620002a0600062000603565b565b6000600254905090565b60008060009054906101000a900473ffffffffffffffffffffffffffffffffffffffff16905090565b60018181548110620002e657600080fd5b906000526020600020016000915054906101000a900473ffffffffffffffffffffffffffffffffffffffff1681565b6000620003216200057e565b600086868686866040516200033690620006cf565b62000346959493929190620009ec565b604051809103906000f08015801562000363573d6000803e3d6000fd5b5090506001819080600181540180825580915050600190039060005260206000200160009091909190916101000a81548173ffffffffffffffffffffffffffffffffffffffff021916908373ffffffffffffffffffffffffffffffffffffffff16021790555060026000815480929190620003de9062000a6a565b91905055508073ffffffffffffffffffffffffffffffffffffffff1663f2fde38b336040518263ffffffff1660e01b81526004016200041e919062000799565b600060405180830381600087803b1580156200043957600080fd5b505af11580156200044e573d6000803e3d6000fd5b505050508073ffffffffffffffffffffffffffffffffffffffff1663a9059cbb33896040518363ffffffff1660e01b81526004016200048f92919062000ab8565b602060405180830381600087803b158015620004aa57600080fd5b505af1158015620004bf573d6000803e3d6000fd5b505050506040513d601f19601f82011682018060405250810190620004e5919062000b22565b508091505095945050505050565b620004fd6200057e565b600073ffffffffffffffffffffffffffffffffffffffff168173ffffffffffffffffffffffffffffffffffffffff16141562000570576040517f08c379a0000000000000000000000000000000000000000000000000000000008152600401620005679062000bca565b60405180910390fd5b6200057b8162000603565b50565b62000588620006c7565b73ffffffffffffffffffffffffffffffffffffffff16620005a8620002ac565b73ffffffffffffffffffffffffffffffffffffffff161462000601576040517f08c379a0000000000000000000000000000000000000000000000000000000008152600401620005f89062000c3c565b60405180910390fd5b565b60008060009054906101000a900473ffffffffffffffffffffffffffffffffffffffff169050816000806101000a81548173ffffffffffffffffffffffffffffffffffffffff021916908373ffffffffffffffffffffffffffffffffffffffff1602179055508173ffffffffffffffffffffffffffffffffffffffff168173ffffffffffffffffffffffffffffffffffffffff167f8be0079c531659141344cd1fd0a4f28419497f9722a3daafe3b4186f6b6457e060405160405180910390a35050565b600033905090565b611de88062000c5f83390190565b600080fd5b600080fd5b6000819050919050565b620006fc81620006e7565b81146200070857600080fd5b50565b6000813590506200071c81620006f1565b92915050565b6000602082840312156200073b576200073a620006dd565b5b60006200074b848285016200070b565b91505092915050565b600073ffffffffffffffffffffffffffffffffffffffff82169050919050565b6000620007818262000754565b9050919050565b620007938162000774565b82525050565b6000602082019050620007b0600083018462000788565b92915050565b620007c181620006e7565b82525050565b6000602082019050620007de6000830184620007b6565b92915050565b600080fd5b600080fd5b600080fd5b60008083601f8401126200080c576200080b620007e4565b5b8235905067ffffffffffffffff8111156200082c576200082b620007e9565b5b6020830191508360018202830111156200084b576200084a620007ee565b5b9250929050565b600080600080600060608688031215620008715762000870620006dd565b5b600062000881888289016200070b565b955050602086013567ffffffffffffffff811115620008a557620008a4620006e2565b5b620008b388828901620007f3565b9450945050604086013567ffffffffffffffff811115620008d957620008d8620006e2565b5b620008e788828901620007f3565b92509250509295509295909350565b620009018162000774565b81146200090d57600080fd5b50565b6000813590506200092181620008f6565b92915050565b60006020828403121562000940576200093f620006dd565b5b6000620009508482850162000910565b91505092915050565b7f4e487b7100000000000000000000000000000000000000000000000000000000600052603260045260246000fd5b600082825260208201905092915050565b82818337600083830152505050565b6000601f19601f8301169050919050565b6000620009c7838562000988565b9350620009d683858462000999565b620009e183620009a8565b840190509392505050565b600060608201905062000a036000830188620007b6565b818103602083015262000a18818688620009b9565b9050818103604083015262000a2f818486620009b9565b90509695505050505050565b7f4e487b7100000000000000000000000000000000000000000000000000000000600052601160045260246000fd5b600062000a7782620006e7565b91507fffffffffffffffffffffffffffffffffffffffffffffffffffffffffffffffff82141562000aad5762000aac62000a3b565b5b600182019050919050565b600060408201905062000acf600083018562000788565b62000ade6020830184620007b6565b9392505050565b60008115159050919050565b62000afc8162000ae5565b811462000b0857600080fd5b50565b60008151905062000b1c8162000af1565b92915050565b60006020828403121562000b3b5762000b3a620006dd565b5b600062000b4b8482850162000b0b565b91505092915050565b7f4f776e61626c653a206e6577206f776e657220697320746865207a65726f206160008201527f6464726573730000000000000000000000000000000000000000000000000000602082015250565b600062000bb260268362000988565b915062000bbf8262000b54565b604082019050919050565b6000602082019050818103600083015262000be58162000ba3565b9050919050565b7f4f776e61626c653a2063616c6c6572206973206e6f7420746865206f776e6572600082015250565b600062000c2460208362000988565b915062000c318262000bec565b602082019050919050565b6000602082019050818103600083015262000c578162000c15565b905091905056fe60806040523480156200001157600080fd5b5060405162001de838038062001de8833981810160405281019062000037919062000580565b8181620000596200004d620000a860201b60201c565b620000b060201b60201c565b816004908051906020019062000071929190620002f8565b5080600590805190602001906200008a929190620002f8565b5050506200009f33846200017460201b60201c565b505050620007bc565b600033905090565b60008060009054906101000a900473ffffffffffffffffffffffffffffffffffffffff169050816000806101000a81548173ffffffffffffffffffffffffffffffffffffffff021916908373ffffffffffffffffffffffffffffffffffffffff1602179055508173ffffffffffffffffffffffffffffffffffffffff168173ffffffffffffffffffffffffffffffffffffffff167f8be0079c531659141344cd1fd0a4f28419497f9722a3daafe3b4186f6b6457e060405160405180910390a35050565b600073ffffffffffffffffffffffffffffffffffffffff168273ffffffffffffffffffffffffffffffffffffffff161415620001e7576040517f08c379a0000000000000000000000000000000000000000000000000000000008152600401620001de906200067b565b60405180910390fd5b620001fb60008383620002ee60201b60201c565b80600360008282546200020f9190620006cc565b9250508190555080600160008473ffffffffffffffffffffffffffffffffffffffff1673ffffffffffffffffffffffffffffffffffffffff1681526020019081526020016000206000828254620002679190620006cc565b925050819055508173ffffffffffffffffffffffffffffffffffffffff16600073ffffffffffffffffffffffffffffffffffffffff167fddf252ad1be2c89b69c2b068fc378daa952ba7f163c4a11628f55a4df523b3ef83604051620002ce91906200073a565b60405180910390a3620002ea60008383620002f360201b60201c565b5050565b505050565b505050565b828054620003069062000786565b90600052602060002090601f0160209004810192826200032a576000855562000376565b82601f106200034557805160ff191683800117855562000376565b8280016001018555821562000376579182015b828111156200037557825182559160200191906001019062000358565b5b50905062000385919062000389565b5090565b5b80821115620003a45760008160009055506001016200038a565b5090565b6000604051905090565b600080fd5b600080fd5b6000819050919050565b620003d181620003bc565b8114620003dd57600080fd5b50565b600081519050620003f181620003c6565b92915050565b600080fd5b600080fd5b6000601f19601f8301169050919050565b7f4e487b7100000000000000000000000000000000000000000000000000000000600052604160045260246000fd5b6200044c8262000401565b810181811067ffffffffffffffff821117156200046e576200046d62000412565b5b80604052505050565b600062000483620003a8565b905062000491828262000441565b919050565b600067ffffffffffffffff821115620004b457620004b362000412565b5b620004bf8262000401565b9050602081019050919050565b60005b83811015620004ec578082015181840152602081019050620004cf565b83811115620004fc576000848401525b50505050565b600062000519620005138462000496565b62000477565b905082815260208101848484011115620005385762000537620003fc565b5b62000545848285620004cc565b509392505050565b600082601f830112620005655762000564620003f7565b5b81516200057784826020860162000502565b91505092915050565b6000806000606084860312156200059c576200059b620003b2565b5b6000620005ac86828701620003e0565b935050602084015167ffffffffffffffff811115620005d057620005cf620003b7565b5b620005de868287016200054d565b925050604084015167ffffffffffffffff811115620006025762000601620003b7565b5b62000610868287016200054d565b9150509250925092565b600082825260208201905092915050565b7f45524332303a206d696e7420746f20746865207a65726f206164647265737300600082015250565b600062000663601f836200061a565b915062000670826200062b565b602082019050919050565b60006020820190508181036000830152620006968162000654565b9050919050565b7f4e487b7100000000000000000000000000000000000000000000000000000000600052601160045260246000fd5b6000620006d982620003bc565b9150620006e683620003bc565b9250827fffffffffffffffffffffffffffffffffffffffffffffffffffffffffffffffff038211156200071e576200071d6200069d565b5b828201905092915050565b6200073481620003bc565b82525050565b600060208201905062000751600083018462000729565b92915050565b7f4e487b7100000000000000000000000000000000000000000000000000000000600052602260045260246000fd5b600060028204905060018216806200079f57607f821691505b60208210811415620007b657620007b562000757565b5b50919050565b61161c80620007cc6000396000f3fe608060405234801561001057600080fd5b50600436106100ea5760003560e01c8063715018a61161008c578063a457c2d711610066578063a457c2d71461024f578063a9059cbb1461027f578063dd62ed3e146102af578063f2fde38b146102df576100ea565b8063715018a6146102095780638da5cb5b1461021357806395d89b4114610231576100ea565b806323b872dd116100c857806323b872dd1461015b578063313ce5671461018b57806339509351146101a957806370a08231146101d9576100ea565b806306fdde03146100ef578063095ea7b31461010d57806318160ddd1461013d575b600080fd5b6100f76102fb565b6040516101049190610dae565b60405180910390f35b61012760048036038101906101229190610e69565b61038d565b6040516101349190610ec4565b60405180910390f35b6101456103b0565b6040516101529190610eee565b60405180910390f35b61017560048036038101906101709190610f09565b6103ba565b6040516101829190610ec4565b60405180910390f35b6101936103e9565b6040516101a09190610f78565b60405180910390f35b6101c360048036038101906101be9190610e69565b6103f2565b6040516101d09190610ec4565b60405180910390f35b6101f360048036038101906101ee9190610f93565b610429565b6040516102009190610eee565b60405180910390f35b610211610472565b005b61021b610486565b6040516102289190610fcf565b60405180910390f35b6102396104af565b6040516102469190610dae565b60405180910390f35b61026960048036038101906102649190610e69565b610541565b6040516102769190610ec4565b60405180910390f35b61029960048036038101906102949190610e69565b6105b8565b6040516102a69190610ec4565b60405180910390f35b6102c960048036038101906102c49190610fea565b6105db565b6040516102d69190610eee565b60405180910390f35b6102f960048036038101906102f49190610f93565b610662565b005b60606004805461030a90611059565b80601f016020809104026020016040519081016040528092919081815260200182805461033690611059565b80156103835780601f1061035857610100808354040283529160200191610383565b820191906000526020600020905b81548152906001019060200180831161036657829003601f168201915b5050505050905090565b6000806103986106e6565b90506103a58185856106ee565b600191505092915050565b6000600354905090565b6000806103c56106e6565b90506103d28582856108b9565b6103dd858585610945565b60019150509392505050565b60006012905090565b6000806103fd6106e6565b905061041e81858561040f85896105db565b61041991906110ba565b6106ee565b600191505092915050565b6000600160008373ffffffffffffffffffffffffffffffffffffffff1673ffffffffffffffffffffffffffffffffffffffff168152602001908152602001600020549050919050565b61047a610bc9565b6104846000610c47565b565b60008060009054906101000a900473ffffffffffffffffffffffffffffffffffffffff16905090565b6060600580546104be90611059565b80601f01602080910402602001604051908101604052809291908181526020018280546104ea90611059565b80156105375780601f1061050c57610100808354040283529160200191610537565b820191906000526020600020905b81548152906001019060200180831161051a57829003601f168201915b5050505050905090565b60008061054c6106e6565b9050600061055a82866105db565b90508381101561059f576040517f08c379a000000000000000000000000000000000000000000000000000000000815260040161059690611182565b60405180910390fd5b6105ac82868684036106ee565b60019250505092915050565b6000806105c36106e6565b90506105d0818585610945565b600191505092915050565b6000600260008473ffffffffffffffffffffffffffffffffffffffff1673ffffffffffffffffffffffffffffffffffffffff16815260200190815260200160002060008373ffffffffffffffffffffffffffffffffffffffff1673ffffffffffffffffffffffffffffffffffffffff16815260200190815260200160002054905092915050565b61066a610bc9565b600073ffffffffffffffffffffffffffffffffffffffff168173ffffffffffffffffffffffffffffffffffffffff1614156106da576040517f08c379a00000000000000000000000000000000000000000000000000000000081526004016106d190611214565b60405180910390fd5b6106e381610c47565b50565b600033905090565b600073ffffffffffffffffffffffffffffffffffffffff168373ffffffffffffffffffffffffffffffffffffffff16141561075e576040517f08c379a0000000000000000000000000000000000000000000000000000000008152600401610755906112a6565b60405180910390fd5b600073ffffffffffffffffffffffffffffffffffffffff168273ffffffffffffffffffffffffffffffffffffffff1614156107ce576040517f08c379a00000000000000000000000000000000000000000000000000000000081526004016107c590611338565b60405180910390fd5b80600260008573ffffffffffffffffffffffffffffffffffffffff1673ffffffffffffffffffffffffffffffffffffffff16815260200190815260200160002060008473ffffffffffffffffffffffffffffffffffffffff1673ffffffffffffffffffffffffffffffffffffffff168152602001908152602001600020819055508173ffffffffffffffffffffffffffffffffffffffff168373ffffffffffffffffffffffffffffffffffffffff167f8c5be1e5ebec7d5bd14f71427d1e84f3dd0314c0f7b2291e5b200ac8c7c3b925836040516108ac9190610eee565b60405180910390a3505050565b60006108c584846105db565b90507fffffffffffffffffffffffffffffffffffffffffffffffffffffffffffffffff811461093f5781811015610931576040517f08c379a0000000000000000000000000000000000000000000000000000000008152600401610928906113a4565b60405180910390fd5b61093e84848484036106ee565b5b50505050565b600073ffffffffffffffffffffffffffffffffffffffff168373ffffffffffffffffffffffffffffffffffffffff1614156109b5576040517f08c379a00000000000000000000000000000000000000000000000000000000081526004016109ac90611436565b60405180910390fd5b600073ffffffffffffffffffffffffffffffffffffffff168273ffffffffffffffffffffffffffffffffffffffff161415610a25576040517f08c379a0000000000000000000000000000000000000000000000000000000008152600401610a1c906114c8565b60405180910390fd5b610a30838383610d0b565b6000600160008573ffffffffffffffffffffffffffffffffffffffff1673ffffffffffffffffffffffffffffffffffffffff16815260200190815260200160002054905081811015610ab7576040517f08c379a0000000000000000000000000000000000000000000000000000000008152600401610aae9061155a565b60405180910390fd5b818103600160008673ffffffffffffffffffffffffffffffffffffffff1673ffffffffffffffffffffffffffffffffffffffff1681526020019081526020016000208190555081600160008573ffffffffffffffffffffffffffffffffffffffff1673ffffffffffffffffffffffffffffffffffffffff1681526020019081526020016000206000828254610b4c91906110ba565b925050819055508273ffffffffffffffffffffffffffffffffffffffff168473ffffffffffffffffffffffffffffffffffffffff167fddf252ad1be2c89b69c2b068fc378daa952ba7f163c4a11628f55a4df523b3ef84604051610bb09190610eee565b60405180910390a3610bc3848484610d10565b50505050565b610bd16106e6565b73ffffffffffffffffffffffffffffffffffffffff16610bef610486565b73ffffffffffffffffffffffffffffffffffffffff1614610c45576040517f08c379a0000000000000000000000000000000000000000000000000000000008152600401610c3c906115c6565b60405180910390fd5b565b60008060009054906101000a900473ffffffffffffffffffffffffffffffffffffffff169050816000806101000a81548173ffffffffffffffffffffffffffffffffffffffff021916908373ffffffffffffffffffffffffffffffffffffffff1602179055508173ffffffffffffffffffffffffffffffffffffffff168173ffffffffffffffffffffffffffffffffffffffff167f8be0079c531659141344cd1fd0a4f28419497f9722a3daafe3b4186f6b6457e060405160405180910390a35050565b505050565b505050565b600081519050919050565b600082825260208201905092915050565b60005b83811015610d4f578082015181840152602081019050610d34565b83811115610d5e576000848401525b50505050565b6000601f19601f8301169050919050565b6000610d8082610d15565b610d8a8185610d20565b9350610d9a818560208601610d31565b610da381610d64565b840191505092915050565b60006020820190508181036000830152610dc88184610d75565b905092915050565b600080fd5b600073ffffffffffffffffffffffffffffffffffffffff82169050919050565b6000610e0082610dd5565b9050919050565b610e1081610df5565b8114610e1b57600080fd5b50565b600081359050610e2d81610e07565b92915050565b6000819050919050565b610e4681610e33565b8114610e5157600080fd5b50565b600081359050610e6381610e3d565b92915050565b60008060408385031215610e8057610e7f610dd0565b5b6000610e8e85828601610e1e565b9250506020610e9f85828601610e54565b9150509250929050565b60008115159050919050565b610ebe81610ea9565b82525050565b6000602082019050610ed96000830184610eb5565b92915050565b610ee881610e33565b82525050565b6000602082019050610f036000830184610edf565b92915050565b600080600060608486031215610f2257610f21610dd0565b5b6000610f3086828701610e1e565b9350506020610f4186828701610e1e565b9250506040610f5286828701610e54565b9150509250925092565b600060ff82169050919050565b610f7281610f5c565b82525050565b6000602082019050610f8d6000830184610f69565b92915050565b600060208284031215610fa957610fa8610dd0565b5b6000610fb784828501610e1e565b91505092915050565b610fc981610df5565b82525050565b6000602082019050610fe46000830184610fc0565b92915050565b6000806040838503121561100157611000610dd0565b5b600061100f85828601610e1e565b925050602061102085828601610e1e565b9150509250929050565b7f4e487b7100000000000000000000000000000000000000000000000000000000600052602260045260246000fd5b6000600282049050600182168061107157607f821691505b602082108114156110855761108461102a565b5b50919050565b7f4e487b7100000000000000000000000000000000000000000000000000000000600052601160045260246000fd5b60006110c582610e33565b91506110d083610e33565b9250827fffffffffffffffffffffffffffffffffffffffffffffffffffffffffffffffff038211156111055761110461108b565b5b828201905092915050565b7f45524332303a2064656372656173656420616c6c6f77616e63652062656c6f7760008201527f207a65726f000000000000000000000000000000000000000000000000000000602082015250565b600061116c602583610d20565b915061117782611110565b604082019050919050565b6000602082019050818103600083015261119b8161115f565b9050919050565b7f4f776e61626c653a206e6577206f776e657220697320746865207a65726f206160008201527f6464726573730000000000000000000000000000000000000000000000000000602082015250565b60006111fe602683610d20565b9150611209826111a2565b604082019050919050565b6000602082019050818103600083015261122d816111f1565b9050919050565b7f45524332303a20617070726f76652066726f6d20746865207a65726f2061646460008201527f7265737300000000000000000000000000000000000000000000000000000000602082015250565b6000611290602483610d20565b915061129b82611234565b604082019050919050565b600060208201905081810360008301526112bf81611283565b9050919050565b7f45524332303a20617070726f766520746f20746865207a65726f20616464726560008201527f7373000000000000000000000000000000000000000000000000000000000000602082015250565b6000611322602283610d20565b915061132d826112c6565b604082019050919050565b6000602082019050818103600083015261135181611315565b9050919050565b7f45524332303a20696e73756666696369656e7420616c6c6f77616e6365000000600082015250565b600061138e601d83610d20565b915061139982611358565b602082019050919050565b600060208201905081810360008301526113bd81611381565b9050919050565b7f45524332303a207472616e736665722066726f6d20746865207a65726f20616460008201527f6472657373000000000000000000000000000000000000000000000000000000602082015250565b6000611420602583610d20565b915061142b826113c4565b604082019050919050565b6000602082019050818103600083015261144f81611413565b9050919050565b7f45524332303a207472616e7366657220746f20746865207a65726f206164647260008201527f6573730000000000000000000000000000000000000000000000000000000000602082015250565b60006114b2602383610d20565b91506114bd82611456565b604082019050919050565b600060208201905081810360008301526114e1816114a5565b9050919050565b7f45524332303a207472616e7366657220616d6f756e742065786365656473206260008201527f616c616e63650000000000000000000000000000000000000000000000000000602082015250565b6000611544602683610d20565b915061154f826114e8565b604082019050919050565b6000602082019050818103600083015261157381611537565b9050919050565b7f4f776e61626c653a2063616c6c6572206973206e6f7420746865206f776e6572600082015250565b60006115b0602083610d20565b91506115bb8261157a565b602082019050919050565b600060208201905081810360008301526115df816115a3565b905091905056fea26469706673582212206198c9faed25167fd0635f55314665f66589f5bd9623310db6d0465d47947ab464736f6c63430008090033a264697066735822122010d573346bba6ae3128f8feaef01441f9a49269f56ccfff9607ae82ce56fbea664736f6c63430008090033",
    "linkReferences": {},
    "deployedLinkReferences": {}
}